:100000000C94E0000C9408010C9408010C94990ADB
:100010000C94990A0C94990A0C9408010C94080108
:100020000C9408010C9408010C9408010C9408012C
:100030000C9408010C9408010C9408010C9408011C
:100040000C944F0A0C9408010C941D0A0C94F709A7
:100050000C9408010C9408010C9408010C940801FC
:100060000C9408010C94080100407A10F35A00A087
:10007000724E18090010A5D4E80000E87648170071
:1000800000E40B54020000CA9A3B000000E1F505B1
:10009000000080969800000040420F000000A086FB
:1000A00001000000102700000000E803000000002D
:1000B0006400000000000A000000000001000000D1
:1000C00000002C76D888DC674F0823DFC1DFAE59EB
:1000D000E1B1B796E5E3E453C63AE651997696E87E
:1000E000E6C28426EB898C9B62ED407C6FFCEFBC02
:1000F0009C9F40F2BAA56FA5F490055A2AF75C932D
:100100006B6CF9676DC11BFCE0E40D47FEF520E662
:10011000B500D0ED902E0300943577050080841E45
:10012000080000204E0A000000C80C333333330FA0
:10013000986E12831141EF8D2114893BE65516CF3D
:10014000FEE6DB18D1844B381BF77C1D901DA4BB49
:10015000E424203284725E228100C9F124ECA1E5FE
:100160003D2700000000240027002A0000000008AE
:10017000000201000003040700000000000000006E
:1001800000000000230026002900000000002500D8
:1001900028002B00040404040404040402020202E4
:1001A000020203030303030301020408102040803A
:1001B000010204081020010204081020110B1C1079
:1001C00011241FBECFEFD8E0DEBFCDBF24E0A6E5EF
:1001D000B2E001C01D92AE33B207E1F712E0A0E039
:1001E000B1E0E4E2FEE202C005900D92A635B1074F
:1001F000D9F710E0CFEDD0E004C02197FE010E94B6
:10020000D914CE3DD107C9F70E94C30C0C94051731
:100210000C9400000895AF92BF92CF92DF92EF92BC
:10022000FF920F931F93CF93DF936C017B018B01A0
:10023000040F151FEB015E01AE18BF08C017D107F0
:1002400059F06991D601ED91FC910190F081E02D7A
:10025000C6010995892B79F7C501DF91CF911F91CF
:100260000F91FF90EF90DF90CF90BF90AF900895E7
:10027000FC01448155816081718187EA92E00C9490
:100280000B01FC01538D448D252F30E0842F90E02D
:10029000821B930B541710F0CF9608950197089581
:1002A000FC01918D828D981761F0A28DAE0FBF2F4A
:1002B000B11D5D968C91928D9F5F9F73928F90E0A0
:1002C00008958FEF9FEF0895FC01918D828D98170F
:1002D00031F0828DE80FF11D858D90E008958FEF4C
:1002E0009FEF0895FC01918D228D892F90E0805C15
:1002F0009F4F821B91098F739927089587EA92E097
:100300000E94720121E0892B09F420E0822F0895D8
:1003100080E090E0892B29F00E947E0181110C94ED
:1003200000000895FC01A48DA80FB92FB11DA35A98
:10033000BF4F2C91848D90E001968F739927848F05
:10034000A689B7892C93A089B1898C918370806428
:100350008C93938D848D981306C00288F389E02DC9
:1003600080818F7D80830895EF92FF920F931F937A
:10037000CF93DF93EC0181E0888F9B8D8C8D981358
:100380001AC0E889F989808185FF15C09FB7F89464
:10039000EE89FF896083E889F989808183708064B0
:1003A00080839FBF81E090E0DF91CF911F910F91FB
:1003B000FF90EF900895F62E0B8D10E00F5F1F4F0A
:1003C0000F731127E02E8C8D8E110CC00FB607FC19
:1003D000FACFE889F989808185FFF5CFCE010E94A7
:1003E0009201F1CFEB8DEC0FFD2FF11DE35AFF4F82
:1003F000F0829FB7F8940B8FEA89FB898081806235
:10040000CFCFCF93DF93EC01888D8823B9F0AA89F1
:10041000BB89E889F9898C9185FD03C0808186FDBF
:100420000DC00FB607FCF7CF8C9185FFF2CF80810E
:1004300085FFEDCFCE010E949201E9CFDF91CF91F0
:10044000089590E0FC01E459FE4F2491FC01E85529
:10045000FE4F3491FC01EC56FE4FE491EE23C9F0BF
:10046000222339F0233001F1A8F4213019F1223090
:1004700029F1F0E0EE0FFF1FE657FE4FA591B49172
:100480008FB7F894EC91611126C030953E233C93D0
:100490008FBF08952730A9F02830C9F0243049F7DC
:1004A000809180008F7D03C0809180008F77809342
:1004B0008000DFCF84B58F7784BDDBCF84B58F7D9F
:1004C000FBCF8091B0008F778093B000D2CF809126
:1004D000B0008F7DF9CF3E2BDACFCF93DF9390E042
:1004E000FC01E855FE4F24918C569E4FFC018491EF
:1004F0008823D1F090E0880F991FFC01EE59FE4F40
:10050000A591B491FC01E657FE4FC591D4916111BC
:100510000EC09FB7F8948C91E22FE0958E238C93B8
:100520002881E223E8839FBFDF91CF9108958FB7A1
:10053000F894EC91E22BEC938FBFF6CF3FB7F89491
:1005400080919B0290919C02A0919D02B0919E028D
:1005500026B5A89B05C02F3F19F00196A11DB11D1E
:100560003FBFBA2FA92F982F8827BC01CD01620F5A
:10057000711D811D911D42E0660F771F881F991F15
:100580004A95D1F708958F929F92AF92BF92CF92E2
:10059000DF92EF92FF924B015C010E949E026B0181
:1005A0007C010E949E026C197D098E099F09683E9C
:1005B000734081059105A8F321E0821A9108A108F2
:1005C000B10888EEC80E83E0D81EE11CF11C81142E
:1005D0009104A104B10429F7FF90EF90DF90CF9030
:1005E000BF90AF909F908F9008952FB7F89460912F
:1005F0009702709198028091990290919A022FBF70
:100600000895CF93DF93EC018A859B85AC85BD85EA
:100610008E839F83A887B9870E94F5026A837B83B4
:100620008C839D8381E089838883DF91CF910895B6
:10063000CF93DF93EC018E819F81A885B9858A8352
:100640009B83AC83BD830E94F5026A877B878C877E
:100650009D8781E089838883DF91CF9108952091E0
:10066000A1023091A2022817390771F490919F02DC
:100670008091A002981741F0E0919F02F0E0EA5AC1
:10068000FD4F808190E008958FEF9FEF08950895CA
:10069000EF92FF920F931F93CF93DF93DC015C9651
:1006A000ED90FC905D97E114F10479F481E090E025
:1006B00013969C938E93129790E080E0DF91CF91F8
:1006C0001F910F91FF90EF9008955196ED91FC913D
:1006D000529750968C915097982F90950FB75E96A1
:1006E0002C915E97122F127021FD6095F894208155
:1006F000112319F1282B2083E7012197F1F728E036
:10070000462F50E0308160FF1AC0382B3083E7015C
:100710002197F1F7BA0175956795215089F7112353
:1007200081F08081892380830FBF5C968D919C919D
:100730000197F1F781E090E0C1CF2923DCCF392385
:10074000E5CF9081892BEFCF2091A1023091A202B9
:100750002817390771F48091A00220919F0290E040
:10076000805C9F4F821B910960E470E00E94A3149B
:10077000089590E080E008952091A1023091A202B6
:1007800028173907B9F490919F028091A002981719
:1007900089F0E0919F02F0E0EA5AFD4F80812091BC
:1007A0009F0230E02F5F3F4F2F73332720939F022C
:1007B00090E008958FEF9FEF089590E080E0089516
:1007C000CF93DF93EC0160E08E810E94210261E013
:1007D0008E810E94210260E08E810E9421028BE8BE
:1007E00091E00197F1F7DF91CF910895CF92DF92D9
:1007F000EF92FF920F931F93CF93DF936C017C01D5
:1008000087E0E80EF11CD0E0C0E0062F10E0B80150
:100810000C2E02C0759567950A94E2F76170F70196
:1008200081917F010E9421022196C430D10579F780
:10083000C601DF91CF911F910F91FF90EF90DF9054
:10084000CF900C94E003CF92DF92EF92FF920F9340
:100850001F93CF93DF93EC01F62E642F8C810E94BF
:1008600021028D818F3F19F060E00E9421020F2D3F
:1008700010E08F8584FF25C06E0187E0C80ED11C73
:10088000F12CE12CB8010E2C02C0759567950A94E5
:10089000E2F76170F60181916F010E942102FFEF82
:1008A000EF1AFF0A88E0E816F10461F7CE01DF9144
:1008B000CF911F910F91FF90EF90DF90CF900C940C
:1008C000E003B80184E0759567958A95E1F7CE015C
:1008D0000E94F6036F2DCE01DF91CF911F910F91F2
:1008E000FF90EF90DF90CF900C94F60340E0682FDC
:1008F00085E793E00C94230481E00E9476048BE367
:100900009FE10197F1F70895CF93DF93823029F4A7
:10091000909184039860909384038093880310924D
:10092000890380E480938A0380E180938B0380E5D0
:1009300080938C0361E0809179030E946D02809125
:100940007A038F3F19F061E00E946D0261E08091AF
:100950007B030E946D02C5E7D3E09E01255733401B
:100960008091840384FD0BC084E090E021962817D9
:10097000390744F461E08E810E946D02EECF88E079
:1009800090E0F4CF8BE39DE00197F1F760E0809178
:1009900079030E94210260E080917B030E94210282
:1009A00080917A038F3F19F060E00E9421028091CC
:1009B000840384FD34C063E085E793E00E94F6037E
:1009C000CBE4D6E4CE010197F1F763E085E793E04D
:1009D0000E94F6032197F1F763E085E793E00E9418
:1009E000F60383E592E00197F1F762E085E793E093
:1009F0000E94F6038091840380620E94760484E062
:100A0000809385038CE00E9476040E947C0482E03F
:100A10008093860386E0DF91CF910C947604806208
:100A20000E9476048BE496E40197F1F780918403A9
:100A300080620E94760483E592E00197F1F780914D
:100A4000840380620E947604D5CF41E00E94230493
:100A500081E090E00895FB0101900020E9F73197D3
:100A6000AF01461B570BDC01ED91FC910280F38135
:100A7000E02D0994CF93DF936AE187EA92E00E9428
:100A8000B401EC0166E371E087EA92E00E942B0575
:100A90008C0F9D1FDF91CF910895CF93DF93BC0101
:100AA00087EA92E00E942B05EC0166E371E087EA99
:100AB00092E00E942B058C0F9D1FDF91CF9108952E
:100AC0002F923F924F925F926F927F928F929F925E
:100AD000AF92BF92CF92DF92EF92FF920F931F934C
:100AE000CF93DF93D82FC92F8B010E94621024E689
:100AF00030E040E050E00E94B71449019B01AC0196
:100B000060E876E988E990E00E9493146B017C012B
:100B1000F80191828082ED2FFC2F2191822F022EED
:100B2000000C990BC0970A97C0F32E3239F51F01BC
:100B300080E8882E86E9982E88E9A82EB12C9AE0C4
:100B4000492E512C612C712CF101C1911F010C2EE9
:100B5000000CDD0BE097CA30D10580F4C501B4016B
:100B6000A30192010E94B71449015A01DE010E94BB
:100B7000DF14C60ED71EE81EF91EE6CFA5E0B0E0D2
:100B8000A70196010E9463136F5F7F4F8F4F9F4FA6
:100B900023E030E040E050E00E94B714F8012283E7
:100BA0003383448355831682DF91CF911F910F9138
:100BB000FF90EF90DF90CF90BF90AF909F908F907D
:100BC0007F906F905F904F903F902F9008951F936C
:100BD000CF93DF93EC0118811D3209F42196CE01E9
:100BE0000E9462109B01AC01A4E6B0E00E94631376
:100BF000AB01BC01FE012991822F022E000C990B42
:100C0000C0970A97B8F32E3231F58181082E000C77
:100C1000990BC0978A309105F0F4AAE0A89F900143
:100C2000A99F300D1124C901330FAA0BBB0B480F2C
:100C3000591F6A1F7B1F8281082E000C990BC097D9
:100C40008A30910540F4092E000CAA0BBB0B480F0B
:100C5000591F6A1F7B1F1D3239F47095609550959E
:100C600041955F4F6F4F7F4FCB01BA01DF91CF911D
:100C70001F910895FF920F931F93CF93DF9340919D
:100C80002A0450912B0460912C0470912D044F5F25
:100C90005F4F6F4F7F4F40932A0450932B04609314
:100CA0002C0470932D04843209F47DC2E091240455
:100CB00085320CF0C0C08A3019F08D3009F082C244
:100CC000C82FEF3008F036C1F0E0ED5EFB4F108228
:100CD000D0911204DD2309F42FC120911304822F37
:100CE000022E000C990B3FEB320F363008F0AFC0EC
:100CF000C7978295807F90911404292F092E000CAC
:100D0000330B4FEB490F463008F0A9C02753310988
:100D1000820F909111048913FAC08091360490914A
:100D20003704A0913804B09139040196A11DB11D7A
:100D30008093360490933704A0933804B093390419
:100D400080912504882399F080912E0490912F049E
:100D5000A0913004B09131040196A11DB11D809382
:100D60002E0490932F04A0933004B093310410917B
:100D70002204112309F47CC01130A1F58FEA93E01D
:100D80000E9418038DEB93E00E94180380912504C4
:100D9000882341F187E0EDE9F3E0AFE8B3E00190AB
:100DA0000D928A95E1F787E0E4EAF3E0A6E9B3E083
:100DB00001900D928A95E1F70E94F5026093AB03D2
:100DC0007093AC038093AD039093AE0310938E03A6
:100DD00010938D038BEC93E00E94010389ED93E067
:100DE0000E9401030091280410912904FF24F39428
:100DF0000115110509F401C2E0912804F0912904BC
:100E000066A177A1F80186A197A10E94E616892B19
:100E100009F0F3C1B801C80140960E94EF160E9484
:100E2000F502F80160A371A382A393A3F5A2F4A233
:100E300002A513A5DDCF8A3209F442CF8C3209F026
:100E4000C1C19091110498279093110439CF215674
:100E5000263018F4875591094CCFC0974ACF915648
:100E6000963018F42755310953CF2053310950CF0C
:100E70008DEB93E00E94180380912504882329F1CB
:100E800087E0EDE9F3E0AFE8B3E001900D928A95D9
:100E9000E1F787E0E4EAF3E0A6E9B3E001900D9220
:100EA0008A95E1F70E94F5026093AB037093AC035F
:100EB0008093AD039093AE0381E080938E03809383
:100EC0008D0387EE93E00E9401038091FF039091D0
:100ED0000004A0910104B09102048093FB0390935D
:100EE000FC03A093FD03B093FE030E94F502609300
:100EF000F7037093F8038093F9039093FA0381E06A
:100F00008093F6038093F50383E094E069CF8091AA
:100F1000320490913304A0913404B09135040196C9
:100F2000A11DB11D8093320490933304A093340427
:100F3000B0933504D0E061C190912304911144C075
:100F400069E371E083E194E00E94E616892B41F0A9
:100F50006FE371E083E194E00E94E616892B21F4AF
:100F600081E08093220412C065E471E083E194E0A3
:100F70000E94E616892B41F06BE471E083E194E076
:100F80000E94E616892BF1F4109222048091260427
:100F900090912704909329048093280400912804B9
:100FA000109129040115110529F263E174E0F8019B
:100FB00086A197A10E94E61697FF18C1F80182A5A5
:100FC00093A5E8CF82E0CDCFE0912204E23009F48E
:100FD00048C080911304882309F443C020E2E29FB3
:100FE000F0011124E92B3197E932F10508F039C0FD
:100FF000E450F84F0C94D914250866086D0874085D
:101000007708A508AC08B908C608310831083108C6
:101010003108310831083108310831083108310808
:1010200031083108310831083108310831083108F8
:1010300031083108310831082508600866086D0854
:10104000740877087E088B08980883E194E00E9472
:10105000E7056093C3037093C4038093C503909323
:10106000C6030091280410912904D091230401158E
:10107000110509F45FCFE0912804F091290466A1DD
:1010800077A1F80186A197A10E94E616892B09F0A5
:1010900051CFF80120A531A58D2F90E0821793073D
:1010A0000CF448CF2817390739F440E150E063E1E8
:1010B00074E0C8010E94F616F80102A513A5D5CF69
:1010C00091E0813409F445C090E043C06DE973E0DC
:1010D00083E194E00E946005C4CF91E0833509F07C
:1010E00090E09093A303BDCF64EA73E0F1CF91E069
:1010F000873509F090E09093AA03B3CF83E194E0A1
:101100000E94E7056093D5037093D6038093D703BD
:101110009093D803A6CF83E194E00E94E705609303
:10112000E3037093E4038093E5039093E60399CF80
:1011300083E194E00E9462106093B5037093B6035C
:101140008093B7039093B8038CCF91E081330CF474
:10115000BBCF9093250485CF83E194E00E94621079
:101160006093FF0370930004809301049093020442
:1011700078CF83E194E00E94E70560930D047093BB
:101180000E0480930F04909310046BCF83E194E0DE
:101190000E94E7056093F1037093F2038093F303D9
:1011A0009093F4035ECF10922404109223041092C3
:1011B000110482E0809322041092120410922504FC
:1011C000D0E028C0EE3040F491E09E0F90932404CC
:1011D000F0E0ED5EFB4F8083D0911204D111F0CF8F
:1011E000C09111048C278093110414C0892B09F439
:1011F000A1CE1092290410922804809123048F5FBD
:10120000809323041092240481E0CA3209F080E024
:10121000809312048D2FDF91CF911F910F91FF903A
:1012200008950F931F93CF93DF938C01EB01FC0183
:10123000808191810097E1F0688179816115710564
:10124000A9F0428153812C813D814217530770F0F0
:101250000E94EF168C819D81F801958384831D8205
:101260001C82DF91CF911F910F9108950E949715D5
:1012700088819981F801918380838A819B819383FE
:1012800082838C819D8195838483198218821B823D
:101290001A82E5CFCF93DF93EC0188819981009783
:1012A00011F00E949715198218821D821C821B82E0
:1012B0001A82DF91CF910895FC018081918100977E
:1012C00011F00C94971508950F931F93CF93DF930C
:1012D000EC0188819981009759F02A813B8126177A
:1012E000370730F081E0DF91CF911F910F91089582
:1012F0008B016F5F7F4F0E942016009759F09983F2
:1013000088831B830A832C813D81232B59F7FC01A1
:101310001082E8CF80E0E7CFCF93DF93EC01198212
:1013200018821B821A821D821C8270E060E00E947B
:101330006409811105C0CE01DF91CF910C944A0957
:101340001D821C8268E371E088819981DF91CF91D1
:101350000C94EF16CF92DF92EF92FF920F931F93B0
:10136000CF93DF93CDB7DEB7A1970FB6F894DEBF6A
:101370000FBECDBF7C01CB01BA01F70111821082F3
:1013800013821282158214828E010F5F1F4F26E096
:1013900048E00E9444106C01009771F0FC0101903C
:1013A0000020E9F731978F01081B190BB801C7011D
:1013B0000E946409811112C0C7010E944A09A196C6
:1013C0000FB6F894DEBF0FBECDBFDF91CF911F9156
:1013D0000F91FF90EF90DF90CF900895F701158364
:1013E0000483B601808191810E94EF16E8CF1F929D
:1013F0000F920FB60F9211242F933F934F935F9349
:101400006F937F938F939F93AF93BF93EF93FF93CC
:1014100087EA92E00E949201FF91EF91BF91AF9114
:101420009F918F917F916F915F914F913F912F91FC
:101430000F900FBE0F901F9018951F920F920FB62E
:101440000F9211242F938F939F93EF93FF93E0912B
:10145000B702F091B8028081E091BD02F091BE0226
:1014600082FD1BC090818091C0028F5F8F7320919D
:10147000C102821741F0E091C002F0E0E955FD4F52
:10148000958F8093C002FF91EF919F918F912F9143
:101490000F900FBE0F901F9018958081F4CF1F9270
:1014A0000F920FB60F9211242F933F938F939F9318
:1014B000AF93BF938091970290919802A091990267
:1014C000B0919A023091960223E0230F2D3758F500
:1014D0000196A11DB11D20939602809397029093CF
:1014E0009802A0939902B0939A0280919B029091E6
:1014F0009C02A0919D02B0919E020196A11DB11D7A
:1015000080939B0290939C02A0939D02B0939E02B5
:10151000BF91AF919F918F913F912F910F900FBEEF
:101520000F901F90189526E8230F0296A11DB11D5C
:10153000D2CF1F920F920FB60F9211242F933F9389
:101540004F935F936F937F938F939F93AF93BF93CB
:10155000EF93FF93E091A102F091A202309749F03E
:10156000A685B7858585968D91FF14C09C918923AA
:10157000A1F4FF91EF91BF91AF919F918F917F91D6
:101580006F915F914F913F912F910F900FBE0F90F0
:101590001F9018959C91892361F7A389B4899C9128
:1015A0008589809589238C93868997890197F1F79E
:1015B000608D718DA685B785558538E020E0CB011B
:1015C0000197F1F7822F90E095958795282F4C9100
:1015D000452309F02068315091F7868D81FD2095D3
:1015E0008091A00290E001968F73992730919F021D
:1015F000381799F0A091A002B0E0AA5ABD4F2C93E1
:101600008093A002828D938D0197F1F7A389B4890D
:101610008C919589892B8C93ACCF868D8160868F38
:10162000F1CFCF92DF92EF92FF921092AA02109226
:10163000A90298EEC92E93E0D92EE12CF12CC0928C
:10164000AB02D092AC02E092AD02F092AE028AE020
:1016500091E09093A8028093A70285EC90E090938C
:10166000B4028093B30284EC90E09093B60280932E
:10167000B50280EC90E09093B8028093B70281ECC1
:1016800090E09093BA028093B90282EC90E090933C
:10169000BC028093BB0286EC90E09093BE028093E4
:1016A000BD021092C0021092C1021092C2021092AA
:1016B000C30210928D0310928E0310929003109229
:1016C0008F03109291031092920310929303109241
:1016D0009403109295031092970310929603109220
:1016E00098031092990310929A0310929B03109200
:1016F0009C0310929E0310929D0310929F031092E0
:10170000A0031092A1031092A2031092A3031092BF
:10171000A5031092A4031092A6031092A70310929F
:10172000A8031092A9031092AA031092AF0310927B
:10173000B0031092B1031092B2031092B30310924F
:10174000B4031092BD031092BE031092BF03109217
:10175000C0031092C1031092C2031092CB031092E7
:10176000CC031092D1031092D2031092D3031092A3
:10177000D4031092D9031092DA031092DF0310926F
:10178000E0031092E1031092E2031092E70310923B
:10179000E8031092ED031092EE031092EF03109203
:1017A000F0031092F5031092F6031092FB031092CF
:1017B000FC031092FD031092FE031092030410929A
:1017C00004041092090410920A0410920B0410925F
:1017D0000C04109211041092120482E080932204EF
:1017E00010922304109224041092250410922704CE
:1017F00010922604109229041092280410922A04B0
:1018000010922B0410922C0410922D0410922E048E
:1018100010922F041092300410923104109232046E
:10182000109233041092340410923504109236044E
:101830001092370410923804109239041092130455
:1018400010927803109277032EE231E03093760302
:101850002093750397E0909379039FEF90937A0319
:1018600096E090937B0395E090937C0394E09093B3
:101870007D0393E090937E0380937F031092800317
:1018800010928103109282031092830310928403BA
:1018900081E00E9484041092590310925803C09270
:1018A0005A03D0925B03E0925C03F0925D038CE1FB
:1018B00091E0909357038093560310926D0310921A
:1018C0006C0310926F0310926E03109271031092CA
:1018D00070031092730310927203609174036E7F11
:1018E0006D7F609374036695617081E0682789E07D
:1018F0000E94210261E089E00E946D02E1EBF1E0CB
:10190000E491E0936603EDE9F1E0E491F0E0EE0F9D
:10191000FF1FE657FE4F8591949190936803809343
:10192000670360E088E00E946D028091740381FD8E
:1019300004C061E088E00E94210288E08093620395
:10194000E0EBF1E0E491E0936303ECE9F1E0E49192
:10195000F0E0EE0FFF1FE058FE4F859194919093B9
:1019600065038093640380E593E00E948C098AE418
:1019700093E00E948C0984E493E0FF90EF90DF9065
:10198000CF900C948C09CF93DF9300D000D000D07F
:10199000CDB7DEB7789484B5826084BD84B58160AC
:1019A00084BD85B5826085BD85B5816085BD80912A
:1019B0006E00816080936E001092810080918100A2
:1019C000826080938100809181008160809381009A
:1019D000809180008160809380008091B10084605C
:1019E0008093B1008091B00081608093B0008091BD
:1019F0007A00846080937A0080917A00826080937C
:101A00007A0080917A00816080937A0080917A00D8
:101A1000806880937A001092C10060E08CE00E94A0
:101A20006D0260E08AE00E946D0260E08DE00E943D
:101A30006D0261E08BE00E946D0261E080E10E9436
:101A40006D0260E08AE00E94210260E08DE00E9469
:101A5000210282E00E948404E091B702F091B80272
:101A600082E08083E091B302F091B4021082E091B1
:101A7000B502F091B6028FEC80831092BF02E09124
:101A8000BB02F091BC0286E08083E091B902F09144
:101A9000BA02808180618083E091B902F091BA023C
:101AA000808188608083E091B902F091BA028081E0
:101AB00080688083E091B902F091BA0280818F7DC5
:101AC000808368EE73E080E090E00E94C302109291
:101AD00071031092700310926F0310926E031092B4
:101AE0006D0310926C038DE991E0909373038093E2
:101AF000720390916203963108F047C02DEB30E0FD
:101B000030936D0320936C032BE931E030936F0326
:101B100020936E032CE231E0309371032093700325
:101B20002091680084E0983048F031E09E3008F45D
:101B300030E081E001C0880F3A95EAF7822B80936C
:101B400068002DE630E0983050F02BE630E09E3013
:101B500030F02CE630E0963110F030E020E03093A9
:101B60006A0320936903292F30E0983008F0FCC005
:101B700081E001C0880F9A95EAF780936B0380910A
:101B80007203909173030197F1F780917003909124
:101B90007103892B49F1E091A102F091A20283E047
:101BA000E635F80709F1309739F0A389B4899C919B
:101BB0008589809589238C93809174038E7F80938F
:101BC00074031092A00210929F0286E593E0909316
:101BD000A2028093A102E0916903F0916A038081DF
:101BE00090916B03892B808368EE73E080E090E036
:101BF0000E94C302E1E0809188038111E0E0E19559
:101C0000F0E0EB58FC4F848980680E94760461E51F
:101C100071E085E793E00E942B05E0918803E230B4
:101C200008F0AFC0E150F0E0EB58FC4F84898068C9
:101C30000E94760462E671E085E793E00E942B053E
:101C40001092A6021092A5028091A5029091A60280
:101C5000C2970CF0A8C01092A4021092A302809127
:101C6000A3029091A402CC970CF08DC086E593E07E
:101C70000E94BC030E943A0610928E036091910369
:101C80007091920380919303909194030E94D512D6
:101C900028E23BE64EE65EE40E9421146B017C01E3
:101CA00060918F037091900390E080E00E94D512C4
:101CB0009B01AC01C701B6010E94B513AB01BC0189
:101CC0008091950381117058CE0101960E94AA0956
:101CD000BE016F5F7F4F80E593E00E941109CE0146
:101CE00001960E945C0910928E0360919803709196
:101CF000990380919A0390919B030E94D51228E248
:101D00003BE64EE65EE40E9421146B017C0160918B
:101D100096037091970390E080E00E94D5129B019A
:101D2000AC01C701B6010E94B513AB01BC018091A3
:101D30009C0381117058CE0101960E94AA09BE0130
:101D40006F5F7F4F8AE493E00E941109CE010196F4
:101D50000E945C098091A3029091A4020196909345
:101D6000A4028093A3027BCF9E3040F42850310917
:101D700081E001C0880F2A95EAF7FFCE2E50310985
:101D8000F7CFE1E050CF6AE070E080E090E00E94A1
:101D9000C3028091A5029091A60201969093A6029B
:101DA0008093A50251CF61E771E087EA92E00E943B
:101DB0002B0564E670E080E090E00E94C30287E8B3
:101DC00091E00E944D0580E593E00E9438016AEAA7
:101DD00071E087EA92E00E942B058AE493E00E947A
:101DE000380168EC70E080E090E00E94C3026EE68B
:101DF00071E087EA92E00E942B058CEA91E00E9454
:101E00004D058DEC91E00E944D0564E670E080E0A8
:101E100090E00E94C3020E943A0568EB7BE080E0FC
:101E200090E00E94C3020E947C046CEF71E085E7A1
:101E300093E00E942B0560ED77E080E090E00E9447
:101E4000C3020E947C0462E370E080E090E00E94A4
:101E5000C3021092A6021092A5028091A502909151
:101E6000A602C2970CF099C01092A4021092A3028D
:101E70008091A3029091A402CC970CF07EC086E5DD
:101E800093E00E94BC030E943A0610928E03609178
:101E900091037091920380919303909194030E9417
:101EA000D51228E23BE64EE65EE40E9421146B0167
:101EB0007C0160918F037091900390E080E00E941C
:101EC000D5129B01AC01C701B6010E94B513AB014D
:101ED000BC018091950381117058CE0101960E943A
:101EE000AA09BE016F5F7F4F80E593E00E94110950
:101EF000CE0101960E945C0910928E0360919803B6
:101F00007091990380919A0390919B030E94D5123E
:101F100028E23BE64EE65EE40E9421146B017C0160
:101F2000609196037091970390E080E00E94D51233
:101F30009B01AC01C701B6010E94B513AB01BC0106
:101F400080919C0381117058CE0101960E94AA09CC
:101F5000BE016F5F7F4F8AE493E00E941109CE01BA
:101F600001960E945C098091A3029091A4020196BF
:101F70009093A4028093A3027BCF6AE070E080E09C
:101F800090E00E94C3028091A5029091A602019662
:101F90009093A6028093A50260CF64E670E080E093
:101FA00090E00E94C30289E092E00E944D056DE23C
:101FB00072E087EA92E00E942B0587E891E00E9498
:101FC0004D0580E593E00E9438016AEA71E087EAF6
:101FD00092E00E942B058AE493E00E94380182E49B
:101FE00092E00E944D0568EC70E080E090E00E9475
:101FF000C3020E943A0568EB7BE080E090E00E941B
:10200000C3020E947C046CEF71E085E793E00E94BC
:102010002B0568EE73E080E090E00E94C3020E940E
:102020007C0464EF71E080E090E00E94C30260E015
:102030008BE00E942102DECD84E493E00E945C09E3
:102040008AE493E00E945C0980E593E00E945C09C9
:102050008CE191E090935703809356038091A10205
:102060009091A2028655934071F4E0916903F0913A
:102070006A03908180916B038095892380831092FD
:10208000A2021092A1020895EF920F931F93CF9393
:10209000DF93E80134E047FD34E1042E000C550BDA
:1020A00057FF03C0519541955109E32E022F242F6C
:1020B000AE010E949E10CE01DF91CF911F910F9132
:1020C000EF9008951F93FC0199278827BC01E8949D
:1020D00011911032E9F3193010F01E30C8F31B32A1
:1020E00051F01D3249F4689406C00E948910610FB6
:1020F000711D811D911D119110531A30B0F33EF4E2
:1021000090958095709561957F4F8F4F9F4F1F9150
:102110000895592F482F372F262F660F771F881FB6
:10212000991F660F771F881F991F620F731F841FE7
:10213000951F660F771F881F991F0895A9E0B0E0CB
:10214000E4EAF0E10C9474136A01F22EB02E102F21
:10215000FBE3AF2EA01608F41BE31F5F012F27E05F
:10216000AE014F5F5F4F0E94FD11BC018981982F26
:102170009970913009F43FC09BE2E1FC04C09E2DB0
:102180009170E0FC3AC05E2D5071E82FE87083FF3B
:1021900046C084E0911101C083E0EF2DE81B8F154C
:1021A00008F0E0E0D6018E2F20E2552351F199236B
:1021B00029F0D6019C93C60101966C0196012D5F12
:1021C0003F4FE2FE24C08EE4D6018C9391E4119639
:1021D0009C93119712968C93D9018E2F90E28111C6
:1021E0001BC0E20FF32FF11D10828EEF9FEF299697
:1021F000ECE00C9490139DE2C6CF90E2C4CF2D93F7
:1022000081508111FCCFCE0ED11CE0E0D0CF8EE604
:10221000D6018C9391E6DBCF9D938150E0CF482F80
:10222000447082FF3DC084E0911101C083E08F15AE
:1022300010F4EF2DE81BD6018E2F20E2552309F173
:10224000992329F0D6019C93C60101966C01960151
:102250002D5F3F4FE2FE1BC089E4D6018C938EE4D4
:1022600011968C93119786E412968C93D9018E2F38
:1022700090E2882309F4B5CF9D938150FACF2D9336
:1022800081508111FCCFCE0ED11CE0E0D9CF89E680
:10229000D6018C938EE611968C93119786E6E4CF47
:1022A0009B0177FF02C030E020E0A1E0B0E0911197
:1022B00002C0B0E0A0E0F9013196AE0FBF1F8B2C39
:1022C000912CBB2009F461C05401EFEFAE1ABE0A95
:1022D000AA0DBB1DFA161B0619F014F04F2D4A1B50
:1022E000511188C0E3FC59C07601A42FB0E2A111BE
:1022F0004FC0C40ED11C992309F45BC040E0D60145
:102300001196F60190836D01552309F448C0012F01
:10231000060F9A81582F507184FF03C0913309F43E
:10232000015010160CF047C0093008F008E0EEE24A
:10233000FE2E5B01A01AB108850191948194910849
:102340002F3F320729F4D601FC92F60131966F0136
:102350006217730794F1021713077CF5DB01A21BC8
:10236000B30BAA24A394B12CAC0EBD1EAA0DBB1DA9
:1023700011968C9121503109D601119628153905F5
:10238000F4F0F60180836D01DBCFB12CA12CA0CF3E
:10239000F701B1937F01A150AACF9111B0CFD6011F
:1023A000942F50E302C05D9391509111FCCFC40E65
:1023B000D11C40E0ACCF01E0BACF80E3DBCF6217A5
:1023C000730731F4963388F4953311F4552369F08B
:1023D000F6018083FD01842F90E2811108C0A40FD3
:1023E000B11D1C9290E080E002CF81E3F1CF919388
:1023F0008150F3CF911183CF8ACF283008F027E0A6
:102400003327DA01990F311D87FD91600096610530
:10241000710539F432602E5F3D9330E32A95E1F780
:1024200008959F3F30F080387105610509F03C5FE9
:102430003C5F3D93913008F08068911DDF93CF930E
:102440001F930F93FF92EF92192F987F9695E92F84
:1024500096959695E90FFF27EE53FF4F992733275F
:10246000EE24FF24A701E70105900894079428F4BF
:10247000360FE71EF81E491F511D660F771F881F74
:10248000991F0694A1F70590079428F4E70EF81E0B
:10249000491F561FC11D770F881F991F661F06947D
:1024A000A1F70590079428F4F80E491F561FC71F7F
:1024B000D11D880F991F661F771F0694A1F70590FD
:1024C000079420F4490F561FC71FD81F990F661F86
:1024D000771F881F0694A9F784911095177041F013
:1024E000D695C79557954795F794E7941A95C1F7F0
:1024F000E8E6F0E068941590159135916591959115
:1025000005907FE27395E118F10A430B560BC90B56
:10251000D009C0F7E10CF11E431F561FC91FD01D83
:102520007EF4703311F48A95E6CFE894015030F0D0
:10253000080F0AF40027021708F4202F2395022F12
:102540007A3328F079E37D932A95E9F710C07D93DB
:102550002A9589F606949795679537951795179458
:10256000E118F10A430B560BC90BD00998F02395DB
:102570007E9173957A3308F070E37C932013B8F75B
:102580007E9170617D9330F0839571E37D9370E36C
:102590002A95E1F71124EF90FF900F911F91CF91B1
:1025A000DF91992787FD90950895E89409C097FBDE
:1025B0003EF490958095709561957F4F8F4F9F4F1A
:1025C0009923A9F0F92F96E9BB279395F69587955E
:1025D00077956795B795F111F8CFFAF4BB0F11F421
:1025E00060FF1BC06F5F7F4F8F4F9F4F16C08823C8
:1025F00011F096E911C0772321F09EE8872F762FFE
:1026000005C0662371F096E8862F70E060E02AF03E
:102610009A95660F771F881FDAF7880F969587952A
:1026200097F9089597F99F6780E870E060E0089552
:102630009FEF80EC089500240A94161617061806DA
:102640000906089500240A941216130614060506B6
:102650000895092E0394000C11F4882352F0BB0F47
:1026600040F4BF2B11F460FF04C06F5F7F4F8F4FAA
:102670009F4F089557FD9058440F551F59F05F3FE5
:1026800071F04795880F97FB991F61F09F3F79F094
:1026900087950895121613061406551FF2CF469516
:1026A000F1DF08C0161617061806991FF1CF869598
:1026B0007105610508940895E894BB27662777277C
:1026C000CB0197F908950E94A513A59F900DB49F83
:1026D000900DA49F800D911D112408952F923F927B
:1026E0004F925F926F927F928F929F92AF92BF9222
:1026F000CF92DF92EF92FF920F931F93CF93DF93CE
:10270000CDB7DEB7CA1BDB0B0FB6F894DEBF0FBE2A
:10271000CDBF09942A88398848885F846E847D8477
:102720008C849B84AA84B984C884DF80EE80FD8079
:102730000C811B81AA81B981CE0FD11D0FB6F894EF
:10274000DEBF0FBECDBFED010895A29FB001B39FC4
:10275000C001A39F700D811D1124911DB29F700DAA
:10276000811D1124911D08955058BB27AA270E944E
:10277000CC130C9429130E941B1338F00E942213CF
:1027800020F039F49F3F19F426F40C9418130EF43A
:10279000E095E7FB0C941213E92F0E943A1358F3CB
:1027A000BA17620773078407950720F079F4A6F536
:1027B0000C945C130EF4E0950B2EBA2FA02D0B0198
:1027C000B90190010C01CA01A0011124FF27591B76
:1027D00099F0593F50F4503E68F11A16F040A22F7C
:1027E000232F342F4427585FF3CF469537952795ED
:1027F000A795F0405395C9F77EF41F16BA0B620BEC
:10280000730B840BBAF09150A1F0FF0FBB1F661F32
:10281000771F881FC2F70EC0BA0F621F731F841F75
:1028200048F4879577956795B795F7959E3F08F09B
:10283000B0CF9395880F08F09927EE0F979587955D
:1028400008950E9435140C9429130E94221358F005
:102850000E941B1340F029F45F3F29F00C941213DF
:1028600051110C945D130C9418130E943A1368F3E1
:102870009923B1F3552391F3951B550BBB27AA2739
:1028800062177307840738F09F5F5F4F220F331F73
:10289000441FAA1FA9F335D00E2E3AF0E0E832D03B
:1028A00091505040E695001CCAF72BD0FE2F29D03E
:1028B000660F771F881FBB1F261737074807AB0710
:1028C000B0E809F0BB0B802DBF01FF2793585F4F85
:1028D0003AF09E3F510578F00C9412130C945D135E
:1028E0005F3FE4F3983ED4F3869577956795B79567
:1028F000F7959F5FC9F7880F911D9695879597F972
:102900000895E1E0660F771F881FBB1F62177307EA
:102910008407BA0720F0621B730B840BBA0BEE1FFF
:1029200088F7E0950895DB018F939F930E946313CE
:10293000BF91AF91A29F800D911DA39F900DB29F5B
:10294000900D1124089597FB072E16F4009407D0DC
:1029500077FD09D00E94E71407FC05D03EF490955E
:1029600081959F4F0895709561957F4F0895A1E2DD
:102970001A2EAA1BBB1BFD010DC0AA1FBB1FEE1FF9
:10298000FF1FA217B307E407F50720F0A21BB30B44
:10299000E40BF50B661F771F881F991F1A9469F7C0
:1029A00060957095809590959B01AC01BD01CF011C
:1029B0000895EE0FFF1F0590F491E02D0994B7FFE5
:1029C0000C9463130E946313821B930B0895AA1B3C
:1029D000BB1B51E107C0AA1FBB1FA617B70710F00A
:1029E000A61BB70B881F991F5A95A9F7809590953C
:1029F000BC01CD0108950F931F93CF93DF938230D5
:102A0000910510F482E090E0E0913C04F0913D04E7
:102A100030E020E0B0E0A0E0309799F421153105D6
:102A200009F44AC0281B390B24303105D8F58A81B6
:102A30009B816115710589F1FB0193838283FE01FE
:102A400011C0408151810281138148175907E0F07C
:102A50004817590799F4109761F012960C93129742
:102A600013961C933296CF01DF91CF911F910F9156
:102A7000089500933C0410933D04F4CF21153105D3
:102A800051F04217530738F0A901DB019A01BD014B
:102A9000DF01F801C1CFEF01F9CF90933D0480939E
:102AA0003C04CDCFFE01E20FF31F8193919322509E
:102AB000310939832883D7CF20913A0430913B04E0
:102AC000232B41F4209102013091030130933B0408
:102AD00020933A0420910001309101012115310524
:102AE00041F42DB73EB74091040150910501241BDC
:102AF000350BE0913A04F0913B04E217F307A0F4A0
:102B00002E1B3F0B2817390778F0AC014E5F5F4F43
:102B10002417350748F04E0F5F1F50933B04409336
:102B20003A04819391939FCFF0E0E0E09CCFCF9364
:102B3000DF930097E9F0FC01329713821282A09193
:102B40003C04B0913D04ED0130E020E01097A1F489
:102B500020813181820F931F20913A0430913B04F0
:102B60002817390709F061C0F0933B04E0933A0459
:102B7000DF91CF910895EA01CE17DF07E8F54A818A
:102B80005B819E0141155105B1F7E901FB83EA83A1
:102B900049915991C40FD51FEC17FD0761F480814D
:102BA00091810296840F951FE90199838883828120
:102BB00093819B838A83F0E0E0E012968D919C9153
:102BC00013970097B9F52D913C911197CD0102967D
:102BD000820F931F20913A0430913B042817390744
:102BE00039F6309751F510923D0410923C04B093A1
:102BF0003B04A0933A04BCCFD383C283408151816C
:102C0000840F951FC817D90761F44E5F5F4F888105
:102C10009981480F591F518340838A819B819383F7
:102C200082832115310509F0B0CFF0933D04E09384
:102C30003C049ECFFD01DC01C0CF13821282D7CFAE
:102C4000B0E0A0E0E6E2F6E10C9470138C0100978E
:102C500051F4CB010E94FB148C01C801CDB7DEB743
:102C6000E0E10C948C13FC01E60FF71F9C0122504D
:102C70003109E217F30708F49DC0D901CD91DC9129
:102C80001197C617D70798F0C530D10530F3CE019C
:102C900004978617970708F3C61BD70B2297C19393
:102CA000D1936D937C93CF010E949715D6CF5B0192
:102CB000AC1ABD0A4C018C0E9D1EA0913C04B09133
:102CC0003D04512C412CF12CE12C109731F58091D1
:102CD0003A0490913B048815990509F05CC04616AA
:102CE000570608F058C080910001909101010097AB
:102CF00041F48DB79EB74091040150910501841BAA
:102D0000950BE817F90708F055C0F0933B04E093E2
:102D10003A04F90171836083A0CF8D919C91119742
:102D200012966C90129713967C901397A815B9057C
:102D300059F56C0142E0C40ED11CCA14DB0420F129
:102D4000AC014A195B09DA011296159780F062828C
:102D5000738251834083D9016D937C93E114F10414
:102D600071F0D7011396FC93EE93129776CF2296CB
:102D70008C0F9D1FF90191838083F301EFCFF093B6
:102D80003D04E0933C0469CF4816590608F42C0131
:102D90007D01D3019ACFCB010E94FB147C010097E7
:102DA00049F0AE01B8010E94DD16C8010E949715D6
:102DB000870153CF10E000E050CFFB01DC0102C0DF
:102DC00001900D9241505040D8F70895FB01DC016D
:102DD0008D91019080190110D9F3990B0895FB0191
:102DE000DC0101900D920020E1F70895FB01DC0168
:102DF0004150504048F001900D920020C9F701C0A9
:102E00001D9241505040E0F7089510E0CFEDD0E022
:102E100004C0FE010E94D9142196C03ED107C9F713
:042E2000F894FFCF54
:102E240000003E04800000000000B4010B014101D9
:102E340001027201500164010000000048030B010B
:102E4400DD034703A403BC032F0300000000250592
:102E54000B01DD030A010D0A004750524D430047A0
:102E64004E524D4300475047474100474E47474164
:102E74000053656375726974792053797374656D51
:102E840020002041637469766174656420202020E9
:102E94000076656869636C6520697320466F756E9A
:102EA400642061743A2000687474703A2F2F6D6145
:102EB40070732E676F6F676C652E636F6D2F6D6116
:102EC40070733F713D6C6F633A002C004966207942
:102ED4006F752077616E7420746F2073746F702027
:102EE4007468652076656869636C65200053656560
:102EF40020746865206E657874204C6F6374617407
:102F0400696F6E207768696C652076656869636CA3
:102F140065206973206D6F76696E670053797374E9
:102F2400656D2052656164790056656869636C65F6
:102F3400206D6F76696E6720506F7374696F6E20B1
:102F440069732064657465637465642000637572D5
:102F540072656E74206C6F636174696F6E2069733F
:102F6400200020636865636B20746865207665685B
:062F740069636C65210099
:00000001FF
